{
  "_format": "hh-sol-artifact-1",
  "contractName": "FistBumpPortal",
  "sourceName": "contracts/FistBumpPortal.sol",
  "abi": [
    {
      "inputs": [],
      "stateMutability": "payable",
      "type": "constructor"
    },
    {
      "anonymous": false,
      "inputs": [
        {
          "indexed": true,
          "internalType": "address",
          "name": "from",
          "type": "address"
        },
        {
          "indexed": false,
          "internalType": "uint256",
          "name": "timestamp",
          "type": "uint256"
        },
        {
          "indexed": false,
          "internalType": "string",
          "name": "message",
          "type": "string"
        }
      ],
      "name": "NewFistBump",
      "type": "event"
    },
    {
      "inputs": [
        {
          "internalType": "string",
          "name": "_message",
          "type": "string"
        }
      ],
      "name": "fistBump",
      "outputs": [],
      "stateMutability": "nonpayable",
      "type": "function"
    },
    {
      "inputs": [],
      "name": "getAllFistBumps",
      "outputs": [
        {
          "components": [
            {
              "internalType": "address",
              "name": "bumper",
              "type": "address"
            },
            {
              "internalType": "string",
              "name": "message",
              "type": "string"
            },
            {
              "internalType": "uint256",
              "name": "timestamp",
              "type": "uint256"
            }
          ],
          "internalType": "struct FistBumpPortal.FistBump[]",
          "name": "",
          "type": "tuple[]"
        }
      ],
      "stateMutability": "view",
      "type": "function"
    },
    {
      "inputs": [],
      "name": "getTotalFistBumps",
      "outputs": [
        {
          "internalType": "uint256",
          "name": "",
          "type": "uint256"
        }
      ],
      "stateMutability": "view",
      "type": "function"
    },
    {
      "inputs": [
        {
          "internalType": "address",
          "name": "",
          "type": "address"
        }
      ],
      "name": "lastWavedAt",
      "outputs": [
        {
          "internalType": "uint256",
          "name": "",
          "type": "uint256"
        }
      ],
      "stateMutability": "view",
      "type": "function"
    }
  ],
  "bytecode": "0x60806040526200003360405180606001604052806031815260200162001444603191396200005b60201b6200063a1760201c565b60644442620000439190620001a8565b6200004f919062000245565b600181905550620002ec565b620000fb8160405160240162000072919062000168565b6040516020818303038152906040527f41304fac000000000000000000000000000000000000000000000000000000007bffffffffffffffffffffffffffffffffffffffffffffffffffffffff19166020820180517bffffffffffffffffffffffffffffffffffffffffffffffffffffffff8381831617835250505050620000fe60201b60201c565b50565b60008151905060006a636f6e736f6c652e6c6f679050602083016000808483855afa5050505050565b600062000134826200018c565b62000140818562000197565b9350620001528185602086016200020f565b6200015d81620002db565b840191505092915050565b6000602082019050818103600083015262000184818462000127565b905092915050565b600081519050919050565b600082825260208201905092915050565b6000620001b58262000205565b9150620001c28362000205565b9250827fffffffffffffffffffffffffffffffffffffffffffffffffffffffffffffffff03821115620001fa57620001f96200027d565b5b828201905092915050565b6000819050919050565b60005b838110156200022f57808201518184015260208101905062000212565b838111156200023f576000848401525b50505050565b6000620002528262000205565b91506200025f8362000205565b925082620002725762000271620002ac565b5b828206905092915050565b7f4e487b7100000000000000000000000000000000000000000000000000000000600052601160045260246000fd5b7f4e487b7100000000000000000000000000000000000000000000000000000000600052601260045260246000fd5b6000601f19601f8301169050919050565b61114880620002fc6000396000f3fe608060405234801561001057600080fd5b506004361061004c5760003560e01c80634a7d1e0514610051578063a42a46631461006f578063b015b5ec1461009f578063ca91e74e146100bd575b600080fd5b6100596100d9565b6040516100669190610cea565b60405180910390f35b61008960048036038101906100849190610954565b610124565b6040516100969190610cea565b60405180910390f35b6100a761013c565b6040516100b49190610be6565b60405180910390f35b6100d760048036038101906100d2919061097d565b61028d565b005b600061011c6040518060400160405280602081526020017f5765277665206265656e20666973742062756d7065642025642074696d6573218152506000546106d3565b600054905090565b60036020528060005260406000206000915090505481565b60606002805480602002602001604051908101604052809291908181526020016000905b8282101561028457838290600052602060002090600302016040518060600160405290816000820160009054906101000a900473ffffffffffffffffffffffffffffffffffffffff1673ffffffffffffffffffffffffffffffffffffffff1673ffffffffffffffffffffffffffffffffffffffff1681526020016001820180546101e990610ed0565b80601f016020809104026020016040519081016040528092919081815260200182805461021590610ed0565b80156102625780601f1061023757610100808354040283529160200191610262565b820191906000526020600020905b81548152906001019060200180831161024557829003601f168201915b5050505050815260200160028201548152505081526020019060010190610160565b50505050905090565b42610384600360003373ffffffffffffffffffffffffffffffffffffffff1673ffffffffffffffffffffffffffffffffffffffff168152602001908152602001600020546102db9190610dfc565b1061031b576040517f08c379a000000000000000000000000000000000000000000000000000000000815260040161031290610cca565b60405180910390fd5b42600360003373ffffffffffffffffffffffffffffffffffffffff1673ffffffffffffffffffffffffffffffffffffffff1681526020019081526020016000208190555060016000808282546103719190610dfc565b925050819055506103b76040518060400160405280601781526020017f25732068617320666973742062756d70656420796f75210000000000000000008152503361076f565b600260405180606001604052803373ffffffffffffffffffffffffffffffffffffffff16815260200183815260200142815250908060018154018082558091505060019003906000526020600020906003020160009091909190915060008201518160000160006101000a81548173ffffffffffffffffffffffffffffffffffffffff021916908373ffffffffffffffffffffffffffffffffffffffff1602179055506020820151816001019080519060200190610476929190610834565b50604082015181600201555050606444426104919190610dfc565b61049b9190610f33565b6001819055506022600154116105e7576104ea6040518060400160405280600781526020017f257320776f6e21000000000000000000000000000000000000000000000000008152503361076f565b60006509184e72a000905047811115610538576040517f08c379a000000000000000000000000000000000000000000000000000000000815260040161052f90610caa565b60405180910390fd5b60003373ffffffffffffffffffffffffffffffffffffffff168260405161055e90610bd1565b60006040518083038185875af1925050503d806000811461059b576040519150601f19603f3d011682016040523d82523d6000602084013e6105a0565b606091505b50509050806105e4576040517f08c379a00000000000000000000000000000000000000000000000000000000081526004016105db90610c8a565b60405180910390fd5b50505b3373ffffffffffffffffffffffffffffffffffffffff167fae5ab957db381e1b307a71a9cd9779115b41491b26e5430ff9300ccf001d17cd428360405161062f929190610d05565b60405180910390a250565b6106d08160405160240161064e9190610c08565b6040516020818303038152906040527f41304fac000000000000000000000000000000000000000000000000000000007bffffffffffffffffffffffffffffffffffffffffffffffffffffffff19166020820180517bffffffffffffffffffffffffffffffffffffffffffffffffffffffff838183161783525050505061080b565b50565b61076b82826040516024016106e9929190610c5a565b6040516020818303038152906040527f9710a9d0000000000000000000000000000000000000000000000000000000007bffffffffffffffffffffffffffffffffffffffffffffffffffffffff19166020820180517bffffffffffffffffffffffffffffffffffffffffffffffffffffffff838183161783525050505061080b565b5050565b6108078282604051602401610785929190610c2a565b6040516020818303038152906040527f319af333000000000000000000000000000000000000000000000000000000007bffffffffffffffffffffffffffffffffffffffffffffffffffffffff19166020820180517bffffffffffffffffffffffffffffffffffffffffffffffffffffffff838183161783525050505061080b565b5050565b60008151905060006a636f6e736f6c652e6c6f679050602083016000808483855afa5050505050565b82805461084090610ed0565b90600052602060002090601f01602090048101928261086257600085556108a9565b82601f1061087b57805160ff19168380011785556108a9565b828001600101855582156108a9579182015b828111156108a857825182559160200191906001019061088d565b5b5090506108b691906108ba565b5090565b5b808211156108d35760008160009055506001016108bb565b5090565b60006108ea6108e584610d5a565b610d35565b90508281526020810184848401111561090257600080fd5b61090d848285610e8e565b509392505050565b600081359050610924816110fb565b92915050565b600082601f83011261093b57600080fd5b813561094b8482602086016108d7565b91505092915050565b60006020828403121561096657600080fd5b600061097484828501610915565b91505092915050565b60006020828403121561098f57600080fd5b600082013567ffffffffffffffff8111156109a957600080fd5b6109b58482850161092a565b91505092915050565b60006109ca8383610b63565b905092915050565b6109db81610e52565b82525050565b6109ea81610e52565b82525050565b60006109fb82610d9b565b610a058185610dbe565b935083602082028501610a1785610d8b565b8060005b85811015610a535784840389528151610a3485826109be565b9450610a3f83610db1565b925060208a01995050600181019050610a1b565b50829750879550505050505092915050565b6000610a7082610da6565b610a7a8185610dda565b9350610a8a818560208601610e9d565b610a9381611020565b840191505092915050565b6000610aa982610da6565b610ab38185610deb565b9350610ac3818560208601610e9d565b610acc81611020565b840191505092915050565b6000610ae4602783610deb565b9150610aef82611031565b604082019050919050565b6000610b07600083610dcf565b9150610b1282611080565b600082019050919050565b6000610b2a603383610deb565b9150610b3582611083565b604082019050919050565b6000610b4d600883610deb565b9150610b58826110d2565b602082019050919050565b6000606083016000830151610b7b60008601826109d2565b5060208301518482036020860152610b938282610a65565b9150506040830151610ba86040860182610bb3565b508091505092915050565b610bbc81610e84565b82525050565b610bcb81610e84565b82525050565b6000610bdc82610afa565b9150819050919050565b60006020820190508181036000830152610c0081846109f0565b905092915050565b60006020820190508181036000830152610c228184610a9e565b905092915050565b60006040820190508181036000830152610c448185610a9e565b9050610c5360208301846109e1565b9392505050565b60006040820190508181036000830152610c748185610a9e565b9050610c836020830184610bc2565b9392505050565b60006020820190508181036000830152610ca381610ad7565b9050919050565b60006020820190508181036000830152610cc381610b1d565b9050919050565b60006020820190508181036000830152610ce381610b40565b9050919050565b6000602082019050610cff6000830184610bc2565b92915050565b6000604082019050610d1a6000830185610bc2565b8181036020830152610d2c8184610a9e565b90509392505050565b6000610d3f610d50565b9050610d4b8282610f02565b919050565b6000604051905090565b600067ffffffffffffffff821115610d7557610d74610ff1565b5b610d7e82611020565b9050602081019050919050565b6000819050602082019050919050565b600081519050919050565b600081519050919050565b6000602082019050919050565b600082825260208201905092915050565b600081905092915050565b600082825260208201905092915050565b600082825260208201905092915050565b6000610e0782610e84565b9150610e1283610e84565b9250827fffffffffffffffffffffffffffffffffffffffffffffffffffffffffffffffff03821115610e4757610e46610f64565b5b828201905092915050565b6000610e5d82610e64565b9050919050565b600073ffffffffffffffffffffffffffffffffffffffff82169050919050565b6000819050919050565b82818337600083830152505050565b60005b83811015610ebb578082015181840152602081019050610ea0565b83811115610eca576000848401525b50505050565b60006002820490506001821680610ee857607f821691505b60208210811415610efc57610efb610fc2565b5b50919050565b610f0b82611020565b810181811067ffffffffffffffff82111715610f2a57610f29610ff1565b5b80604052505050565b6000610f3e82610e84565b9150610f4983610e84565b925082610f5957610f58610f93565b5b828206905092915050565b7f4e487b7100000000000000000000000000000000000000000000000000000000600052601160045260246000fd5b7f4e487b7100000000000000000000000000000000000000000000000000000000600052601260045260246000fd5b7f4e487b7100000000000000000000000000000000000000000000000000000000600052602260045260246000fd5b7f4e487b7100000000000000000000000000000000000000000000000000000000600052604160045260246000fd5b6000601f19601f8301169050919050565b7f4661696c656420746f207769746864726177206d6f6e65792066726f6d20636f60008201527f6e74726163742e00000000000000000000000000000000000000000000000000602082015250565b50565b7f547279696e6720746f207769746864726177206d6f7265206d6f6e657920746860008201527f616e2074686520636f6e74726163742068617300000000000000000000000000602082015250565b7f576169742031356d000000000000000000000000000000000000000000000000600082015250565b61110481610e52565b811461110f57600080fd5b5056fea2646970667358221220cde7b95e830f153190692b7f18c29b3911608b67500d5574ba4b742d46e50e3a64736f6c6343000804003349276d20736f6d6520736f7274206f6620736d61727420636f6e74726163742c206174206c6561737420696e206e616d65",
  "linkReferences": {},
  "deployedLinkReferences": {}
}